{
  "contractName": "One",
  "abi": [
    {
      "inputs": [],
      "payable": false,
      "stateMutability": "nonpayable",
      "type": "constructor"
    },
    {
      "constant": true,
      "inputs": [],
      "name": "random",
      "outputs": [
        {
          "internalType": "uint256",
          "name": "",
          "type": "uint256"
        }
      ],
      "payable": false,
      "stateMutability": "view",
      "type": "function"
    },
    {
      "constant": false,
      "inputs": [
        {
          "internalType": "string",
          "name": "newMessage",
          "type": "string"
        }
      ],
      "name": "setMessage",
      "outputs": [],
      "payable": true,
      "stateMutability": "payable",
      "type": "function"
    },
    {
      "constant": true,
      "inputs": [],
      "name": "getBalance",
      "outputs": [
        {
          "internalType": "uint256",
          "name": "",
          "type": "uint256"
        }
      ],
      "payable": false,
      "stateMutability": "view",
      "type": "function"
    },
    {
      "constant": true,
      "inputs": [],
      "name": "getMessage",
      "outputs": [
        {
          "internalType": "string",
          "name": "",
          "type": "string"
        }
      ],
      "payable": false,
      "stateMutability": "view",
      "type": "function"
    },
    {
      "constant": true,
      "inputs": [],
      "name": "getWinners",
      "outputs": [
        {
          "internalType": "address[]",
          "name": "",
          "type": "address[]"
        }
      ],
      "payable": false,
      "stateMutability": "view",
      "type": "function"
    },
    {
      "constant": false,
      "inputs": [],
      "name": "payout",
      "outputs": [
        {
          "internalType": "uint256",
          "name": "",
          "type": "uint256"
        }
      ],
      "payable": false,
      "stateMutability": "nonpayable",
      "type": "function"
    },
    {
      "constant": false,
      "inputs": [],
      "name": "ownerPayout",
      "outputs": [
        {
          "internalType": "uint256",
          "name": "",
          "type": "uint256"
        }
      ],
      "payable": false,
      "stateMutability": "nonpayable",
      "type": "function"
    },
    {
      "constant": false,
      "inputs": [],
      "name": "coinFlip",
      "outputs": [],
      "payable": true,
      "stateMutability": "payable",
      "type": "function"
    }
  ],
  "bytecode": "0x608060405234801561001057600080fd5b5033600260006101000a81548173ffffffffffffffffffffffffffffffffffffffff021916908373ffffffffffffffffffffffffffffffffffffffff160217905550610753806100616000396000f3fe60806040526004361061007b5760003560e01c80635ec01e4d1161004e5780635ec01e4d1461019b57806363bd1d4a146101c6578063ce6d41de146101f1578063df15c37e146102815761007b565b806312065fe014610080578063368b8772146100ab5780634264b4e0146101665780635ac947cb14610191575b600080fd5b34801561008c57600080fd5b506100956102ed565b6040518082815260200191505060405180910390f35b610164600480360360208110156100c157600080fd5b81019080803590602001906401000000008111156100de57600080fd5b8201836020820111156100f057600080fd5b8035906020019184600183028401116401000000008311171561011257600080fd5b91908080601f016020809104026020016040519081016040528093929190818152602001838380828437600081840152601f19601f8201169050808301925050505050505091929192905050506102f6565b005b34801561017257600080fd5b5061017b6103a5565b6040518082815260200191505060405180910390f35b610199610424565b005b3480156101a757600080fd5b506101b06104da565b6040518082815260200191505060405180910390f35b3480156101d257600080fd5b506101db6104ec565b6040518082815260200191505060405180910390f35b3480156101fd57600080fd5b50610206610549565b6040518080602001828103825283818151815260200191508051906020019080838360005b8381101561024657808201518184015260208101905061022b565b50505050905090810190601f1680156102735780820380516001836020036101000a031916815260200191505b509250505060405180910390f35b34801561028d57600080fd5b506102966105eb565b6040518080602001828103825283818151815260200191508051906020019060200280838360005b838110156102d95780820151818401526020810190506102be565b505050509050019250505060405180910390f35b60008054905090565b600260009054906101000a900473ffffffffffffffffffffffffffffffffffffffff1673ffffffffffffffffffffffffffffffffffffffff163373ffffffffffffffffffffffffffffffffffffffff161461035057600080fd5b670de0b6b3a76400008034101561036657600080fd5b670de0b6b3a764000034101561037b57600080fd5b8160019080519060200190610391929190610679565b503460008082825401925050819055505050565b600080600054905060008081905550600260009054906101000a900473ffffffffffffffffffffffffffffffffffffffff1673ffffffffffffffffffffffffffffffffffffffff166108fc829081150290604051600060405180830381858888f1935050505015801561041c573d6000803e3d6000fd5b508091505090565b670de0b6b3a76400008034101561043a57600080fd5b34600080828254019250508190555060006104536104da565b14156104cd5760033390806001815401808255809150509060018203906000526020600020016000909192909190916101000a81548173ffffffffffffffffffffffffffffffffffffffff021916908373ffffffffffffffffffffffffffffffffffffffff160217905550506104c76104ec565b506104d7565b6104d56103a5565b505b50565b6000600242816104e657fe5b06905090565b6000806000549050600080819055503373ffffffffffffffffffffffffffffffffffffffff166108fc829081150290604051600060405180830381858888f19350505050158015610541573d6000803e3d6000fd5b508091505090565b606060018054600181600116156101000203166002900480601f0160208091040260200160405190810160405280929190818152602001828054600181600116156101000203166002900480156105e15780601f106105b6576101008083540402835291602001916105e1565b820191906000526020600020905b8154815290600101906020018083116105c457829003601f168201915b5050505050905090565b6060600380548060200260200160405190810160405280929190818152602001828054801561066f57602002820191906000526020600020905b8160009054906101000a900473ffffffffffffffffffffffffffffffffffffffff1673ffffffffffffffffffffffffffffffffffffffff1681526020019060010190808311610625575b5050505050905090565b828054600181600116156101000203166002900490600052602060002090601f016020900481019282601f106106ba57805160ff19168380011785556106e8565b828001600101855582156106e8579182015b828111156106e75782518255916020019190600101906106cc565b5b5090506106f591906106f9565b5090565b61071b91905b808211156107175760008160009055506001016106ff565b5090565b9056fea265627a7a72315820487c014ca5738daa529eedd63df88a42e7c65b2a820f95851eebfe117135de1b64736f6c63430005100032",
  "source": "pragma solidity >=0.4.22 <0.8.0;\r\n\r\ncontract One {\r\n    uint balance;\r\n    string message;\r\n    address payable owner;\r\n    address[] winnerList;\r\n    \r\n    constructor() public{\r\n        owner = msg.sender;\r\n    }\r\n    \r\n    modifier onlyOwner() {\r\n        require(msg.sender == owner);\r\n        _;\r\n    }\r\n    \r\n    modifier costs(uint cost) {\r\n        require(msg.value >= cost);\r\n        _;\r\n    }\r\n    \r\n    function random() public view returns(uint) {\r\n        return now % 2;\r\n    }\r\n    \r\n    function setMessage(string memory newMessage) public onlyOwner payable costs(1 ether) {\r\n        require(msg.value >= 1 ether);\r\n        message = newMessage;\r\n        balance += msg.value;\r\n    }\r\n    \r\n    function getBalance() public view returns(uint) {\r\n        return balance;\r\n    }\r\n    \r\n    function getMessage() public view returns(string memory) {\r\n        return message;\r\n    }\r\n    \r\n    function getWinners() public view returns(address[] memory) {\r\n        return winnerList;\r\n    }\r\n    \r\n    function payout() public returns(uint) {\r\n    \r\n        uint toTransfer = balance;\r\n        balance = 0;\r\n        \r\n        msg.sender.transfer(toTransfer);\r\n        return toTransfer;\r\n    }\r\n    \r\n    function ownerPayout() public returns(uint) {\r\n    \r\n        uint toTransfer = balance;\r\n        balance = 0;\r\n        \r\n        owner.transfer(toTransfer);\r\n        return toTransfer;\r\n    }\r\n    \r\n    \r\n    function coinFlip() public payable costs(1 ether) {\r\n        balance += msg.value;\r\n            if(random() == 0) {\r\n                winnerList.push(msg.sender);\r\n                payout();\r\n            } else {\r\n                ownerPayout();\r\n            }\r\n    }\r\n}",
  "sourcePath": "C:/Users/Matt/documents/dapp_project/1/contracts/One.sol",
  "compiler": {
    "name": "solc",
    "version": "0.5.16+commit.9c3226ce.Emscripten.clang"
  },
  "schemaVersion": "3.3.2",
  "updatedAt": "2020-12-21T15:56:15.204Z",
  "networkType": "ethereum",
  "devdoc": {
    "methods": {}
  },
  "userdoc": {
    "methods": {}
  }
}