{
  "contractName": "One",
  "abi": [
    {
      "inputs": [],
      "payable": false,
      "stateMutability": "nonpayable",
      "type": "constructor"
    },
    {
      "constant": true,
      "inputs": [],
      "name": "owner",
      "outputs": [
        {
          "internalType": "address payable",
          "name": "",
          "type": "address"
        }
      ],
      "payable": false,
      "stateMutability": "view",
      "type": "function"
    },
    {
      "constant": true,
      "inputs": [],
      "name": "player1",
      "outputs": [
        {
          "internalType": "address payable",
          "name": "",
          "type": "address"
        }
      ],
      "payable": false,
      "stateMutability": "view",
      "type": "function"
    },
    {
      "constant": true,
      "inputs": [],
      "name": "player2",
      "outputs": [
        {
          "internalType": "address payable",
          "name": "",
          "type": "address"
        }
      ],
      "payable": false,
      "stateMutability": "view",
      "type": "function"
    },
    {
      "constant": true,
      "inputs": [],
      "name": "random",
      "outputs": [
        {
          "internalType": "uint256",
          "name": "",
          "type": "uint256"
        }
      ],
      "payable": false,
      "stateMutability": "view",
      "type": "function"
    },
    {
      "constant": false,
      "inputs": [
        {
          "internalType": "string",
          "name": "newMessage",
          "type": "string"
        }
      ],
      "name": "setMessage",
      "outputs": [],
      "payable": true,
      "stateMutability": "payable",
      "type": "function"
    },
    {
      "constant": true,
      "inputs": [],
      "name": "getBalance",
      "outputs": [
        {
          "internalType": "uint256",
          "name": "",
          "type": "uint256"
        }
      ],
      "payable": false,
      "stateMutability": "view",
      "type": "function"
    },
    {
      "constant": true,
      "inputs": [],
      "name": "getMessage",
      "outputs": [
        {
          "internalType": "string",
          "name": "",
          "type": "string"
        }
      ],
      "payable": false,
      "stateMutability": "view",
      "type": "function"
    },
    {
      "constant": false,
      "inputs": [
        {
          "internalType": "address payable",
          "name": "to",
          "type": "address"
        },
        {
          "internalType": "uint256",
          "name": "amount",
          "type": "uint256"
        }
      ],
      "name": "transfer",
      "outputs": [
        {
          "internalType": "uint256",
          "name": "",
          "type": "uint256"
        }
      ],
      "payable": false,
      "stateMutability": "nonpayable",
      "type": "function"
    },
    {
      "constant": false,
      "inputs": [],
      "name": "coinFlip",
      "outputs": [],
      "payable": true,
      "stateMutability": "payable",
      "type": "function"
    },
    {
      "constant": false,
      "inputs": [],
      "name": "doubleFlip",
      "outputs": [],
      "payable": true,
      "stateMutability": "payable",
      "type": "function"
    },
    {
      "constant": false,
      "inputs": [],
      "name": "tripleFlip",
      "outputs": [],
      "payable": true,
      "stateMutability": "payable",
      "type": "function"
    }
  ],
  "bytecode": "0x608060405234801561001057600080fd5b5033600260006101000a81548173ffffffffffffffffffffffffffffffffffffffff021916908373ffffffffffffffffffffffffffffffffffffffff16021790555061080b806100616000396000f3fe60806040526004361061009c5760003560e01c8063678f685111610064578063678f6851146102135780638da5cb5b1461021d578063a9059cbb14610274578063c1ed7df3146102e3578063ce6d41de146102ed578063d30895e41461037d5761009c565b806312065fe0146100a1578063368b8772146100cc57806359a5f12d146101875780635ac947cb146101de5780635ec01e4d146101e8575b600080fd5b3480156100ad57600080fd5b506100b66103d4565b6040518082815260200191505060405180910390f35b610185600480360360208110156100e257600080fd5b81019080803590602001906401000000008111156100ff57600080fd5b82018360208201111561011157600080fd5b8035906020019184600183028401116401000000008311171561013357600080fd5b91908080601f016020809104026020016040519081016040528093929190818152602001838380828437600081840152601f19601f8201169050808301925050505050505091929192905050506103de565b005b34801561019357600080fd5b5061019c61041f565b604051808273ffffffffffffffffffffffffffffffffffffffff1673ffffffffffffffffffffffffffffffffffffffff16815260200191505060405180910390f35b6101e6610445565b005b3480156101f457600080fd5b506101fd6104cc565b6040518082815260200191505060405180910390f35b61021b6104de565b005b34801561022957600080fd5b50610232610565565b604051808273ffffffffffffffffffffffffffffffffffffffff1673ffffffffffffffffffffffffffffffffffffffff16815260200191505060405180910390f35b34801561028057600080fd5b506102cd6004803603604081101561029757600080fd5b81019080803573ffffffffffffffffffffffffffffffffffffffff1690602001909291908035906020019092919050505061058b565b6040518082815260200191505060405180910390f35b6102eb6105e2565b005b3480156102f957600080fd5b50610302610669565b6040518080602001828103825283818151815260200191508051906020019080838360005b83811015610342578082015181840152602081019050610327565b50505050905090810190601f16801561036f5780820380516001836020036101000a031916815260200191505b509250505060405180910390f35b34801561038957600080fd5b5061039261070b565b604051808273ffffffffffffffffffffffffffffffffffffffff1673ffffffffffffffffffffffffffffffffffffffff16815260200191505060405180910390f35b6000600154905090565b670de0b6b3a7640000803410156103f457600080fd5b816005908051906020019061040a929190610731565b50346001600082825401925050819055505050565b600460009054906101000a900473ffffffffffffffffffffffffffffffffffffffff1681565b670de0b6b3a76400008034101561045b57600080fd5b3460016000828254019250508190555060006104756104cc565b14156104935761048d33671bc16d674ec8000061058b565b506104c9565b6104c7600260009054906101000a900473ffffffffffffffffffffffffffffffffffffffff16670de0b6b3a764000061058b565b505b50565b6000600242816104d857fe5b06905090565b671bc16d674ec80000803410156104f457600080fd5b34600160008282540192505081905550600061050e6104cc565b141561052c5761052633673782dace9d90000061058b565b50610562565b610560600260009054906101000a900473ffffffffffffffffffffffffffffffffffffffff16671bc16d674ec8000061058b565b505b50565b600260009054906101000a900473ffffffffffffffffffffffffffffffffffffffff1681565b6000808290508373ffffffffffffffffffffffffffffffffffffffff166108fc829081150290604051600060405180830381858888f193505050501580156105d7573d6000803e3d6000fd5b508091505092915050565b6729a2241af62c0000803410156105f857600080fd5b3460016000828254019250508190555060006106126104cc565b14156106305761062a336753444835ec58000061058b565b50610666565b610664600260009054906101000a900473ffffffffffffffffffffffffffffffffffffffff166729a2241af62c000061058b565b505b50565b606060058054600181600116156101000203166002900480601f0160208091040260200160405190810160405280929190818152602001828054600181600116156101000203166002900480156107015780601f106106d657610100808354040283529160200191610701565b820191906000526020600020905b8154815290600101906020018083116106e457829003601f168201915b5050505050905090565b600360009054906101000a900473ffffffffffffffffffffffffffffffffffffffff1681565b828054600181600116156101000203166002900490600052602060002090601f016020900481019282601f1061077257805160ff19168380011785556107a0565b828001600101855582156107a0579182015b8281111561079f578251825591602001919060010190610784565b5b5090506107ad91906107b1565b5090565b6107d391905b808211156107cf5760008160009055506001016107b7565b5090565b9056fea265627a7a72315820182465c8027e0317f86ac171a262ab403bd356ff0076255cdfcfd1922514423464736f6c63430005100032",
  "source": "import \"./Ownable.sol\";\r\npragma solidity >=0.4.22 <0.8.0;\r\n\r\ncontract One is Ownable {\r\n    uint balance;\r\n    address payable public owner;\r\n    address payable public player1;\r\n    address payable public player2;\r\n    string message;\r\n    address[] winnerList;\r\n    \r\n    constructor() public {\r\n        owner = msg.sender;\r\n    }\r\n    \r\n    modifier onlyOwner() {\r\n        require(msg.sender == owner);\r\n        _;\r\n    }\r\n    \r\n    modifier costs(uint cost) {\r\n        require(msg.value >= cost);\r\n        _;\r\n    }\r\n    \r\n    function random() public view returns(uint) {\r\n        return now % 2;\r\n    }\r\n    \r\n    function setMessage(string memory newMessage) public payable costs(1 ether) {\r\n        message = newMessage;\r\n        balance += msg.value;\r\n    }\r\n    \r\n    function getBalance() public view returns(uint) {\r\n        return balance;\r\n    }\r\n    \r\n    function getMessage() public view returns(string memory) {\r\n        return message;\r\n    }\r\n    \r\n    function transfer(address payable to, uint amount) public returns(uint) {\r\n        uint toTransfer = amount;\r\n        to.transfer(toTransfer);\r\n        return toTransfer;\r\n    }\r\n    \r\n    function coinFlip() public payable costs(1 ether) {\r\n        balance += msg.value;\r\n        if(random() == 0) {\r\n            transfer(msg.sender, 2 ether);\r\n        } else {\r\n            transfer(owner, 1 ether);\r\n        }\r\n    }\r\n    \r\n    function doubleFlip() public payable costs(2 ether) {\r\n        balance += msg.value;\r\n        if(random() == 0) {\r\n            transfer(msg.sender, 4 ether);\r\n        } else {\r\n            transfer(owner, 2 ether);\r\n        }\r\n    }\r\n    \r\n    function tripleFlip() public payable costs(3 ether) {\r\n        balance += msg.value;\r\n        if(random() == 0) {\r\n            transfer(msg.sender, 6 ether);\r\n        } else {\r\n            transfer(owner, 3 ether);\r\n        }\r\n    }\r\n    \r\n}",
  "sourcePath": "C:/Users/Matt/documents/dapp_project/1/contracts/One.sol",
  "compiler": {
    "name": "solc",
    "version": "0.5.16+commit.9c3226ce.Emscripten.clang"
  },
  "schemaVersion": "3.3.2",
  "updatedAt": "2020-12-27T22:01:21.571Z",
  "networkType": "ethereum",
  "devdoc": {
    "methods": {}
  },
  "userdoc": {
    "methods": {}
  }
}