{
  "contractName": "One",
  "abi": [
    {
      "inputs": [],
      "payable": false,
      "stateMutability": "nonpayable",
      "type": "constructor"
    },
    {
      "constant": true,
      "inputs": [],
      "name": "random",
      "outputs": [
        {
          "internalType": "uint256",
          "name": "",
          "type": "uint256"
        }
      ],
      "payable": false,
      "stateMutability": "view",
      "type": "function"
    },
    {
      "constant": false,
      "inputs": [
        {
          "internalType": "string",
          "name": "newMessage",
          "type": "string"
        }
      ],
      "name": "setMessage",
      "outputs": [],
      "payable": true,
      "stateMutability": "payable",
      "type": "function"
    },
    {
      "constant": true,
      "inputs": [],
      "name": "getBalance",
      "outputs": [
        {
          "internalType": "uint256",
          "name": "",
          "type": "uint256"
        }
      ],
      "payable": false,
      "stateMutability": "view",
      "type": "function"
    },
    {
      "constant": true,
      "inputs": [],
      "name": "getMessage",
      "outputs": [
        {
          "internalType": "string",
          "name": "",
          "type": "string"
        }
      ],
      "payable": false,
      "stateMutability": "view",
      "type": "function"
    },
    {
      "constant": false,
      "inputs": [
        {
          "internalType": "address payable",
          "name": "to",
          "type": "address"
        }
      ],
      "name": "payMe",
      "outputs": [
        {
          "internalType": "uint256",
          "name": "",
          "type": "uint256"
        }
      ],
      "payable": false,
      "stateMutability": "nonpayable",
      "type": "function"
    },
    {
      "constant": false,
      "inputs": [
        {
          "internalType": "address payable",
          "name": "to",
          "type": "address"
        },
        {
          "internalType": "uint256",
          "name": "amount",
          "type": "uint256"
        }
      ],
      "name": "transfer",
      "outputs": [],
      "payable": false,
      "stateMutability": "nonpayable",
      "type": "function"
    },
    {
      "constant": false,
      "inputs": [],
      "name": "coinFlip",
      "outputs": [],
      "payable": true,
      "stateMutability": "payable",
      "type": "function"
    },
    {
      "constant": false,
      "inputs": [],
      "name": "doubleFlip",
      "outputs": [],
      "payable": true,
      "stateMutability": "payable",
      "type": "function"
    },
    {
      "constant": false,
      "inputs": [],
      "name": "tripleFlip",
      "outputs": [],
      "payable": true,
      "stateMutability": "payable",
      "type": "function"
    }
  ],
  "bytecode": "0x608060405234801561001057600080fd5b5033600260006101000a81548173ffffffffffffffffffffffffffffffffffffffff021916908373ffffffffffffffffffffffffffffffffffffffff160217905550610747806100616000396000f3fe6080604052600436106100865760003560e01c8063678f685111610059578063678f6851146101a6578063a9059cbb146101b0578063ad218d431461020b578063c1ed7df314610270578063ce6d41de1461027a57610086565b806312065fe01461008b578063368b8772146100b65780635ac947cb146101715780635ec01e4d1461017b575b600080fd5b34801561009757600080fd5b506100a061030a565b6040518082815260200191505060405180910390f35b61016f600480360360208110156100cc57600080fd5b81019080803590602001906401000000008111156100e957600080fd5b8201836020820111156100fb57600080fd5b8035906020019184600183028401116401000000008311171561011d57600080fd5b91908080601f016020809104026020016040519081016040528093929190818152602001838380828437600081840152601f19601f820116905080830192505050505050509192919290505050610313565b005b6101796103c2565b005b34801561018757600080fd5b50610190610431565b6040518082815260200191505060405180910390f35b6101ae610443565b005b3480156101bc57600080fd5b50610209600480360360408110156101d357600080fd5b81019080803573ffffffffffffffffffffffffffffffffffffffff169060200190929190803590602001909291905050506104b2565b005b34801561021757600080fd5b5061025a6004803603602081101561022e57600080fd5b81019080803573ffffffffffffffffffffffffffffffffffffffff1690602001909291905050506104fd565b6040518082815260200191505060405180910390f35b61027861055c565b005b34801561028657600080fd5b5061028f6105cb565b6040518080602001828103825283818151815260200191508051906020019080838360005b838110156102cf5780820151818401526020810190506102b4565b50505050905090810190601f1680156102fc5780820380516001836020036101000a031916815260200191505b509250505060405180910390f35b60008054905090565b600260009054906101000a900473ffffffffffffffffffffffffffffffffffffffff1673ffffffffffffffffffffffffffffffffffffffff163373ffffffffffffffffffffffffffffffffffffffff161461036d57600080fd5b670de0b6b3a76400008034101561038357600080fd5b670de0b6b3a764000034101561039857600080fd5b81600190805190602001906103ae92919061066d565b503460008082825401925050819055505050565b670de0b6b3a7640000803410156103d857600080fd5b34600080828254019250508190555060006103f1610431565b141561040257610400336104fd565b505b61042d600260009054906101000a900473ffffffffffffffffffffffffffffffffffffffff166104fd565b5050565b60006002428161043d57fe5b06905090565b671bc16d674ec800008034101561045957600080fd5b3460008082825401925050819055506000610472610431565b141561048357610481336104fd565b505b6104ae600260009054906101000a900473ffffffffffffffffffffffffffffffffffffffff166104fd565b5050565b8173ffffffffffffffffffffffffffffffffffffffff166108fc829081150290604051600060405180830381858888f193505050501580156104f8573d6000803e3d6000fd5b505050565b6000806000549050600080819055508273ffffffffffffffffffffffffffffffffffffffff166108fc829081150290604051600060405180830381858888f19350505050158015610552573d6000803e3d6000fd5b5080915050919050565b6729a2241af62c00008034101561057257600080fd5b346000808282540192505081905550600061058b610431565b141561059c5761059a336104fd565b505b6105c7600260009054906101000a900473ffffffffffffffffffffffffffffffffffffffff166104fd565b5050565b606060018054600181600116156101000203166002900480601f0160208091040260200160405190810160405280929190818152602001828054600181600116156101000203166002900480156106635780601f1061063857610100808354040283529160200191610663565b820191906000526020600020905b81548152906001019060200180831161064657829003601f168201915b5050505050905090565b828054600181600116156101000203166002900490600052602060002090601f016020900481019282601f106106ae57805160ff19168380011785556106dc565b828001600101855582156106dc579182015b828111156106db5782518255916020019190600101906106c0565b5b5090506106e991906106ed565b5090565b61070f91905b8082111561070b5760008160009055506001016106f3565b5090565b9056fea265627a7a723158200c574b110c24fe92b2af473d409c54d90f39b8b3f871994ae53ebc66df24771464736f6c63430005100032",
  "source": "pragma solidity >=0.4.22 <0.8.0;\r\n\r\ncontract One {\r\n    uint balance;\r\n    string message;\r\n    address payable owner;\r\n    address[] winnerList;\r\n    \r\n    constructor() public{\r\n        owner = msg.sender;\r\n    }\r\n    \r\n    modifier onlyOwner() {\r\n        require(msg.sender == owner);\r\n        _;\r\n    }\r\n    \r\n    modifier costs(uint cost) {\r\n        require(msg.value >= cost);\r\n        _;\r\n    }\r\n    \r\n    function random() public view returns(uint) {\r\n        return now % 2;\r\n    }\r\n    \r\n    function setMessage(string memory newMessage) public onlyOwner payable costs(1 ether) {\r\n        require(msg.value >= 1 ether);\r\n        message = newMessage;\r\n        balance += msg.value;\r\n    }\r\n    \r\n    function getBalance() public view returns(uint) {\r\n        return balance;\r\n    }\r\n    \r\n    function getMessage() public view returns(string memory) {\r\n        return message;\r\n    }\r\n    \r\n    function payMe(address payable to) public returns(uint) {\r\n        uint toTransfer = balance;\r\n        balance = 0;\r\n        \r\n        to.transfer(toTransfer);\r\n        return toTransfer;\r\n    }\r\n    \r\n    function transfer(address payable to, uint256 amount) public {\r\n        to.transfer(amount);\r\n    }\r\n    \r\n    function coinFlip() public payable costs(1 ether) {\r\n        balance += msg.value;\r\n            if(random() == 0) {\r\n            payMe(msg.sender);\r\n            }\r\n            payMe(owner);\r\n    }\r\n    \r\n    function doubleFlip() public payable costs(2 ether) {\r\n        balance += msg.value;\r\n            if(random() == 0) {\r\n            payMe(msg.sender);\r\n            } \r\n            payMe(owner);\r\n    }\r\n    \r\n    function tripleFlip() public payable costs(3 ether) {\r\n        balance += msg.value;\r\n            if(random() == 0) {\r\n            payMe(msg.sender);\r\n            } \r\n            payMe(owner);\r\n    }\r\n    \r\n}",
  "sourcePath": "C:/Users/Matt/documents/dapp_project/1/contracts/One.sol",
  "compiler": {
    "name": "solc",
    "version": "0.5.16+commit.9c3226ce.Emscripten.clang"
  },
  "schemaVersion": "3.3.2",
  "updatedAt": "2020-12-24T19:57:34.722Z",
  "networkType": "ethereum",
  "devdoc": {
    "methods": {}
  },
  "userdoc": {
    "methods": {}
  }
}