{
  "contractName": "One",
  "abi": [
    {
      "inputs": [],
      "payable": false,
      "stateMutability": "nonpayable",
      "type": "constructor"
    },
    {
      "constant": true,
      "inputs": [],
      "name": "owner",
      "outputs": [
        {
          "internalType": "address payable",
          "name": "",
          "type": "address"
        }
      ],
      "payable": false,
      "stateMutability": "view",
      "type": "function"
    },
    {
      "constant": true,
      "inputs": [],
      "name": "player1",
      "outputs": [
        {
          "internalType": "address payable",
          "name": "",
          "type": "address"
        }
      ],
      "payable": false,
      "stateMutability": "view",
      "type": "function"
    },
    {
      "constant": true,
      "inputs": [],
      "name": "player2",
      "outputs": [
        {
          "internalType": "address payable",
          "name": "",
          "type": "address"
        }
      ],
      "payable": false,
      "stateMutability": "view",
      "type": "function"
    },
    {
      "constant": true,
      "inputs": [],
      "name": "random",
      "outputs": [
        {
          "internalType": "uint256",
          "name": "",
          "type": "uint256"
        }
      ],
      "payable": false,
      "stateMutability": "view",
      "type": "function"
    },
    {
      "constant": false,
      "inputs": [
        {
          "internalType": "string",
          "name": "newMessage",
          "type": "string"
        }
      ],
      "name": "setMessage",
      "outputs": [],
      "payable": true,
      "stateMutability": "payable",
      "type": "function"
    },
    {
      "constant": true,
      "inputs": [],
      "name": "getBalance",
      "outputs": [
        {
          "internalType": "uint256",
          "name": "",
          "type": "uint256"
        }
      ],
      "payable": false,
      "stateMutability": "view",
      "type": "function"
    },
    {
      "constant": true,
      "inputs": [],
      "name": "getMessage",
      "outputs": [
        {
          "internalType": "string",
          "name": "",
          "type": "string"
        }
      ],
      "payable": false,
      "stateMutability": "view",
      "type": "function"
    },
    {
      "constant": false,
      "inputs": [
        {
          "internalType": "address payable",
          "name": "to",
          "type": "address"
        }
      ],
      "name": "payMe",
      "outputs": [
        {
          "internalType": "uint256",
          "name": "",
          "type": "uint256"
        }
      ],
      "payable": false,
      "stateMutability": "nonpayable",
      "type": "function"
    },
    {
      "constant": false,
      "inputs": [
        {
          "internalType": "address payable",
          "name": "to",
          "type": "address"
        },
        {
          "internalType": "uint256",
          "name": "amount",
          "type": "uint256"
        }
      ],
      "name": "transfer",
      "outputs": [
        {
          "internalType": "uint256",
          "name": "",
          "type": "uint256"
        }
      ],
      "payable": false,
      "stateMutability": "nonpayable",
      "type": "function"
    },
    {
      "constant": false,
      "inputs": [],
      "name": "makeWager",
      "outputs": [
        {
          "internalType": "bool",
          "name": "",
          "type": "bool"
        }
      ],
      "payable": true,
      "stateMutability": "payable",
      "type": "function"
    },
    {
      "constant": false,
      "inputs": [],
      "name": "acceptWager",
      "outputs": [
        {
          "internalType": "bool",
          "name": "",
          "type": "bool"
        }
      ],
      "payable": true,
      "stateMutability": "payable",
      "type": "function"
    },
    {
      "constant": false,
      "inputs": [],
      "name": "coinFlip",
      "outputs": [],
      "payable": true,
      "stateMutability": "payable",
      "type": "function"
    },
    {
      "constant": false,
      "inputs": [],
      "name": "doubleFlip",
      "outputs": [],
      "payable": true,
      "stateMutability": "payable",
      "type": "function"
    },
    {
      "constant": false,
      "inputs": [],
      "name": "tripleFlip",
      "outputs": [],
      "payable": true,
      "stateMutability": "payable",
      "type": "function"
    }
  ],
  "bytecode": "0x608060405234801561001057600080fd5b5033600360006101000a81548173ffffffffffffffffffffffffffffffffffffffff021916908373ffffffffffffffffffffffffffffffffffffffff16021790555061095c806100616000396000f3fe6080604052600436106100dd5760003560e01c8063a9059cbb1161007f578063b7ec2a9611610059578063b7ec2a96146103ab578063c1ed7df3146103cd578063ce6d41de146103d7578063d30895e414610467576100dd565b8063a9059cbb146102b5578063ad218d4314610324578063aefd029914610389576100dd565b80635ac947cb116100bb5780635ac947cb1461021f5780635ec01e4d14610229578063678f6851146102545780638da5cb5b1461025e576100dd565b806312065fe0146100e2578063368b87721461010d57806359a5f12d146101c8575b600080fd5b3480156100ee57600080fd5b506100f76104be565b6040518082815260200191505060405180910390f35b6101c66004803603602081101561012357600080fd5b810190808035906020019064010000000081111561014057600080fd5b82018360208201111561015257600080fd5b8035906020019184600183028401116401000000008311171561017457600080fd5b91908080601f016020809104026020016040519081016040528093929190818152602001838380828437600081840152601f19601f8201169050808301925050505050505091929192905050506104c8565b005b3480156101d457600080fd5b506101dd610509565b604051808273ffffffffffffffffffffffffffffffffffffffff1673ffffffffffffffffffffffffffffffffffffffff16815260200191505060405180910390f35b61022761052f565b005b34801561023557600080fd5b5061023e61059f565b6040518082815260200191505060405180910390f35b61025c6105b1565b005b34801561026a57600080fd5b50610273610607565b604051808273ffffffffffffffffffffffffffffffffffffffff1673ffffffffffffffffffffffffffffffffffffffff16815260200191505060405180910390f35b3480156102c157600080fd5b5061030e600480360360408110156102d857600080fd5b81019080803573ffffffffffffffffffffffffffffffffffffffff1690602001909291908035906020019092919050505061062d565b6040518082815260200191505060405180910390f35b34801561033057600080fd5b506103736004803603602081101561034757600080fd5b81019080803573ffffffffffffffffffffffffffffffffffffffff169060200190929190505050610684565b6040518082815260200191505060405180910390f35b6103916106e4565b604051808215151515815260200191505060405180910390f35b6103b3610735565b604051808215151515815260200191505060405180910390f35b6103d56107a0565b005b3480156103e357600080fd5b506103ec6107ba565b6040518080602001828103825283818151815260200191508051906020019080838360005b8381101561042c578082015181840152602081019050610411565b50505050905090810190601f1680156104595780820380516001836020036101000a031916815260200191505b509250505060405180910390f35b34801561047357600080fd5b5061047c61085c565b604051808273ffffffffffffffffffffffffffffffffffffffff1673ffffffffffffffffffffffffffffffffffffffff16815260200191505060405180910390f35b6000600154905090565b670de0b6b3a7640000803410156104de57600080fd5b81600690805190602001906104f4929190610882565b50346001600082825401925050819055505050565b600560009054906101000a900473ffffffffffffffffffffffffffffffffffffffff1681565b600061053961059f565b14156105705761056a600460009054906101000a900473ffffffffffffffffffffffffffffffffffffffff16610684565b5061059d565b61059b600560009054906101000a900473ffffffffffffffffffffffffffffffffffffffff16610684565b505b565b6000600242816105ab57fe5b06905090565b6801158e460913d00000803410156105c857600080fd5b34600160008282540192505081905550610603600360009054906101000a900473ffffffffffffffffffffffffffffffffffffffff16610684565b5050565b600360009054906101000a900473ffffffffffffffffffffffffffffffffffffffff1681565b6000808290508373ffffffffffffffffffffffffffffffffffffffff166108fc829081150290604051600060405180830381858888f19350505050158015610679573d6000803e3d6000fd5b508091505092915050565b600080600254905060006002819055508273ffffffffffffffffffffffffffffffffffffffff166108fc829081150290604051600060405180830381858888f193505050501580156106da573d6000803e3d6000fd5b5080915050919050565b60003460028190555033600460006101000a81548173ffffffffffffffffffffffffffffffffffffffff021916908373ffffffffffffffffffffffffffffffffffffffff1602179055506001905090565b60006002548034101561074757600080fd5b60025434141561079b5733600560006101000a81548173ffffffffffffffffffffffffffffffffffffffff021916908373ffffffffffffffffffffffffffffffffffffffff1602179055506001915061079c565b5b5090565b6801158e460913d00000803410156107b757600080fd5b50565b606060068054600181600116156101000203166002900480601f0160208091040260200160405190810160405280929190818152602001828054600181600116156101000203166002900480156108525780601f1061082757610100808354040283529160200191610852565b820191906000526020600020905b81548152906001019060200180831161083557829003601f168201915b5050505050905090565b600460009054906101000a900473ffffffffffffffffffffffffffffffffffffffff1681565b828054600181600116156101000203166002900490600052602060002090601f016020900481019282601f106108c357805160ff19168380011785556108f1565b828001600101855582156108f1579182015b828111156108f05782518255916020019190600101906108d5565b5b5090506108fe9190610902565b5090565b61092491905b80821115610920576000816000905550600101610908565b5090565b9056fea265627a7a72315820cf787c555213204e00b6d183ce8d33cca6d3e7dc25d402baabebb9ffa2ac6f9f64736f6c63430005100032",
  "source": "import \"./Ownable.sol\";\r\npragma solidity >=0.4.22 <0.8.0;\r\n\r\ncontract One is Ownable {\r\n    uint balance;\r\n    uint wager;\r\n    address payable public owner;\r\n    address payable public player1;\r\n    address payable public player2;\r\n    string message;\r\n    address[] winnerList;\r\n    \r\n    constructor() public {\r\n        owner = msg.sender;\r\n    }\r\n    \r\n    modifier onlyOwner() {\r\n        require(msg.sender == owner);\r\n        _;\r\n    }\r\n    \r\n    modifier costs(uint cost) {\r\n        require(msg.value >= cost);\r\n        _;\r\n    }\r\n    \r\n    function random() public view returns(uint) {\r\n        return now % 2;\r\n    }\r\n    \r\n    function setMessage(string memory newMessage) public payable costs(1 ether) {\r\n        message = newMessage;\r\n        balance += msg.value;\r\n    }\r\n    \r\n    function getBalance() public view returns(uint) {\r\n        return balance;\r\n    }\r\n    \r\n    function getMessage() public view returns(string memory) {\r\n        return message;\r\n    }\r\n    \r\n    function payMe(address payable to) public returns(uint) {\r\n        uint toTransfer = wager;\r\n        wager = 0;\r\n        \r\n        to.transfer(toTransfer);\r\n        return toTransfer;\r\n    }\r\n    \r\n    function transfer(address payable to, uint amount) public returns(uint) {\r\n        uint toTransfer = amount;\r\n        to.transfer(toTransfer);\r\n        return toTransfer;\r\n    }\r\n    \r\n    function makeWager() payable public returns(bool) {\r\n        wager = msg.value;\r\n        player1 = msg.sender;\r\n        return true;\r\n    }\r\n    \r\n    function acceptWager() payable public costs(wager) returns(bool) {\r\n        if(msg.value == wager) {\r\n            player2 = msg.sender;\r\n            return true;\r\n        }\r\n    }\r\n    \r\n    function coinFlip() public payable {\r\n            if(random() == 0) {\r\n                payMe(player1);\r\n            } else {\r\n                payMe(player2);\r\n            }\r\n    }\r\n    \r\n    function doubleFlip() public payable costs(20 ether) {\r\n        balance += msg.value;\r\n            payMe(owner);\r\n    }\r\n    \r\n    function tripleFlip() public payable costs(20 ether) {\r\n    \r\n    }\r\n    \r\n}",
  "sourcePath": "C:/Users/Matt/documents/dapp_project/1/contracts/One.sol",
  "compiler": {
    "name": "solc",
    "version": "0.5.16+commit.9c3226ce.Emscripten.clang"
  },
  "schemaVersion": "3.3.2",
  "updatedAt": "2020-12-25T17:27:09.501Z",
  "networkType": "ethereum",
  "devdoc": {
    "methods": {}
  },
  "userdoc": {
    "methods": {}
  }
}